:030000000210DE0D
:0C10DE00787FE4F6D8FD7581450208001B
:10109600000000000000000000000000000000004A
:0C10A6000000000000000000000000003E
:08107000C2A58F807F057E0000
:10107800D3EF9400EE940040147D6E7C00ED1D705B
:0D108800011CED4C70F7EF1F70E61E80E3B9
:011095002238
:0A10EA00C2A6121070D2A7C2A722FE
:0A10F400D2A6121070D2A7C2A722E4
:0210B200AE0787
:1010B400EEBD01052480FA800324C0FAAF021210A9
:0610C400EAAF030210F484
:1010CA007F381210EA7F0C1210EA7F061210EA7FAC
:0410DA00010210EA15
:100FAA00E4F54575900FE590640F605D7F647E00FF
:100FBA00121078E590640F605075900FAF90EF248F
:100FCA00F5601124FE6013146016240770167A0067
:100FDA007B0180107A007B02800A7A007B038004FE
:100FEA007A007B047590F0AF90EF2450600C24E0F7
:100FFA00600C24F0600C2470800F7404800674085E
:10100A008002740C2BFBE43AFAE545C39432500D86
:10101A00E59064F06007121074054580ECAF03AEEA
:01102A0002C3
:01102B0022A2
:10080000E4F510F511F512F513F514751501F5164B
:10081000F517F518F519781A7C00FD7BFF7A107929
:1008200096FE7F08120E4F78227C007D007BFF7AB7
:1008300010799E7E007F08120E4F782A7C007D0082
:100840007BFF7A1079A67E007F0C120E4FE4F536FE
:10085000F537F538F539F53AF53B1210CA7F8012B5
:1008600010EA12107475900FE590640F60F7120F84
:10087000AA8E088F09E5086003020979E50914B416
:100880001000400302097990089575F003A4C58310
:1008900025F0C583730208C50208D10208DD0208ED
:1008A000E90208F502090002090B020916020921F2
:1008B00002092C02093702094202094D02095B02B2
:1008C0000965020970753C31751800751901020936
:1008D00079753C32751800751902020979753C3337
:1008E000751800751903020979753C2B7510007590
:1008F0001101020979753C34751800751904807965
:10090000753C35751800751905806E753C3675187F
:10091000007519068063753C2D75100075110280F5
:1009200058753C37751800751907804D753C38753A
:1009300018007519088042753C3975180075190939
:100940008037753C2A751000751103802C753600B0
:10095000753702753A00753B01801E753C30E4F531
:1009600018F5198014753C3D75160075170280093D
:10097000753C2F751000751104E509640D4508607C
:1009800011AF39AB3C7D011210B20539E539700267
:100990000538E517640245166003020C27E5156467
:1009A000024514700685280C85290DE5156403455C
:1009B000147014AE28AF29FC7D0A120E75E5272F9E
:1009C000F50DE5263EF50CE515640445147027AEDB
:1009D00026AF27FC7D0A120E75AA06AB07AE28AF1C
:1009E000297D64120E75EF2BFFEE3AFEE5252FF5FB
:1009F0000DE5243EF50CE51564054514703AAE2668
:100A0000AF27FC7D64120E75AA06AB07AE28AF298E
:100A10007C037DE8120E75EF2BFBEE3AFAAE24AFA5
:100A2000257C007D0A120E75EF2BFFEE3AFEE523C2
:100A30002FF50DE5223EF50CE5127049E51324FE75
:100A4000601814602414602E24037039E50B250D02
:100A5000F50FE50A350CF50E802BC3E50B950DF56A
:100A60000FE50A950CF50E801CAC0CAD0DAE0AAF6F
:100A70000B120E75800BAC0CAD0DAE0AAF0B120E47
:100A8000878E0E8F0FAE0EAF0FE4FCFD7BA07A8633
:100A90007901F812102CE47B0AFAF9F812102CAE46
:100AA00002AF038E2A8F2BAE0EAF0F7C277D101264
:100AB0000E877C007D0A120E878C2C8D2DAE0EAF1A
:100AC0000F7C037DE8120E877C007D0A120E878C56
:100AD0002E8D2FAE0EAF0F7C007D64120E877C0032
:100AE0007D0A120E878C308D31AE0EAF0F7C007DEB
:100AF0000A120E877C007D0A120E878C328D33AE6F
:100B00000EAF0F7C007D0A120E878C348D35E4FF0A
:100B1000FEEF25E0242AF8E6FC08E6FDEC7075ED12
:100B2000B40A00506F900B2CF8282873020B920225
:100B30000B4A020B52020B5A020B62020B6A020BA7
:100B400072020B7A020B82020B8A743D2FF8763107
:100B50008048743D2FF876328040743D2FF876330C
:100B60008038743D2FF876348030743D2FF8763518
:100B70008028743D2FF876368020743D2FF8763724
:100B80008018743D2FF876388010743D2FF8763930
:100B900080088000743D2FF876300FBF00010EEF03
:100BA00064084E6003020B117FC01210EAE4FBFAE6
:100BB000743D2BF8E6FF1210F40BBB00010AEB6446
:100BC000064A70ECE53764024536705B1210CA7F46
:100BD000801210EAE4F516F517FB7A08783D7430B8
:100BE000F608DAFCE4FAFBEB25E0241AF8E4F60850
:100BF000F6EB25E02422F8E4F608F60BBB00010A28
:100C0000EB64074A70E1E4F510F511F512F513F500
:100C100014751501F516F517F518F519F538F539A8
:100C2000F536F537020865E509640D45087008E5F5
:100C300015151570021514E509640D4508700302B9
:100C40000D4EE51145107017C37404951525E02469
:100C50001AF8A61808A6190515E51570020514E579
:100C600011640545107017C37404951525E02422FE
:100C7000F8A61808A6190515E51570020514E51162
:100C800064014510601BE511640245106013E51115
:100C900064034510600BE511640445106003020D08
:100CA0004EE51564024514700685200A85210BE582
:100CB00015640345147014AE20AF21FC7D0A120E9A
:100CC00075E51F2FF50BE51E3EF50AE51564044595
:100CD000147027AE1EAF1FFC7D0A120E75AA06AB5C
:100CE00007AE20AF217D64120E75EF2BFFEE3AFEAA
:100CF000E51D2FF50BE51C3EF50AE51564054514C9
:100D0000703AAE1EAF1FFC7D64120E75AA06AB07CB
:100D1000AE20AF217C037DE8120E75EF2BFBEE3A7F
:100D2000FAAE1CAF1D7C007D0A120E75EF2BFFEE94
:100D30003AFEE51B2FF50BE51A3EF50A85101285E4
:100D40001113751000751105751400751501E5096D
:100D5000640D45086003020865E517451660030247
:100D60000865E539153970021538AF397B207D01EA
:0F0D70001210B2E4F516F517F536F537020865DF
:100D7F00E709F608DFFA8046E709F208DFFA803E56
:100D8F0088828C83E709F0A3DFFA8032E309F60843
:100D9F00DFFA8078E309F208DFFA807088828C83AB
:100DAF00E309F0A3DFFA806489828A83E0A3F6085F
:100DBF00DFFA805889828A83E0A3F208DFFA804C39
:100DCF0080D280FA80C680D4806980F28033801010
:100DDF0080A680EA809A80A880DA80E280CA803379
:100DEF0089828A83ECFAE493A3C8C582C8CCC583F1
:100DFF00CCF0A3C8C582C8CCC583CCDFE9DEE780C1
:100E0F000D89828A83E493A3F608DFF9ECFAA9F03F
:100E1F00EDFB2289828A83ECFAE0A3C8C582C8CC95
:100E2F00C583CCF0A3C8C582C8CCC583CCDFEADEAE
:100E3F00E880DB89828A83E493A3F208DFF980CC10
:100E4F0088F0EF60010E4E60C388F0ED2402B40409
:100E5F000050B9F582EB2402B4040050AF232345B0
:060E6F008223900DCF73F9
:100E7500EF8DF0A4A8F0CF8CF0A428CE8DF0A42E91
:020E8500FE224B
:100E8700BC000BBE0029EF8DF084FFADF022E4CC4F
:100E9700F875F008EF2FFFEE33FEEC33FCEE9DEC18
:100EA700984005FCEE9DFE0FD5F0E9E4CEFD22ED5E
:100EB700F8F5F0EE8420D21CFEADF075F008EF2FA8
:100EC700FFED33FD4007985006D5F0F222C398FD99
:050ED7000FD5F0EA2236
:10102C00C2D5E830E70FB2D5E4C39BFBE49AFAE4EF
:10103C0099F9E498F8EC30E717B2D5121062120F58
:10104C0018E4C39BFBE49AFAE499F9E498F880035A
:10105C00120F1830D50DE4C39FFFE49EFEE49DFDF6
:04106C00E49CFC22E2
:100EDC0075F008758200EF2FFFEE33FECD33CDCCCD
:100EEC0033CCC58233C5829BED9AEC99E582984050
:100EFC000CF582EE9BFEED9AFDEC99FC0FD5F0D62D
:100F0C00E4CEFBE4CDFAE4CCF9A88222B800C1B956
:100F1C000059BA002DEC8BF084CFCECDFCE5F0CB94
:100F2C00F97818EF2FFFEE33FEED33FDEC33FCEBCD
:100F3C0033FB10D703994004EB99FB0FD8E5E4F988
:100F4C00FA227818EF2FFFEE33FEED33FDEC33FC75
:100F5C00C933C910D7059BE99A4007EC9BFCE99A69
:100F6C00F90FD8E0E4C9FAE4CCFB2275F010EF2FAE
:100F7C00FFEE33FEED33FDCC33CCC833C810D707AE
:100F8C009BEC9AE899400AED9BFDEC9AFCE899F8E9
:0E0F9C000FD5F0DAE4CDFBE4CCFAE4C8F9227C
:00000001FF
